{
  "_format": "hh-sol-artifact-1",
  "contractName": "Bioverse",
  "sourceName": "contracts/Bioverse.sol",
  "abi": [
    {
      "anonymous": false,
      "inputs": [
        {
          "indexed": true,
          "internalType": "address",
          "name": "from",
          "type": "address"
        },
        {
          "indexed": true,
          "internalType": "address",
          "name": "to",
          "type": "address"
        },
        {
          "indexed": false,
          "internalType": "uint256",
          "name": "amount",
          "type": "uint256"
        },
        {
          "indexed": false,
          "internalType": "string",
          "name": "message",
          "type": "string"
        }
      ],
      "name": "PaymentSent",
      "type": "event"
    },
    {
      "inputs": [
        {
          "internalType": "address payable",
          "name": "_to",
          "type": "address"
        },
        {
          "internalType": "string",
          "name": "_message",
          "type": "string"
        }
      ],
      "name": "sendPayment",
      "outputs": [],
      "stateMutability": "payable",
      "type": "function"
    },
    {
      "stateMutability": "payable",
      "type": "receive"
    }
  ],
  "bytecode": "0x608060405234801561001057600080fd5b506104bd806100206000396000f3fe6080604052600436106100225760003560e01c806385d6bff11461002e57610029565b3661002957005b600080fd5b610048600480360381019061004391906102f7565b61004a565b005b6000341161008d576040517f08c379a0000000000000000000000000000000000000000000000000000000008152600401610084906103b0565b60405180910390fd5b8173ffffffffffffffffffffffffffffffffffffffff166108fc349081150290604051600060405180830381858888f193505050501580156100d3573d6000803e3d6000fd5b508173ffffffffffffffffffffffffffffffffffffffff163373ffffffffffffffffffffffffffffffffffffffff167fb1010776ed854d1e940d4ef133f9fa76da17f3a4080ee1f9e7d98f62b95163943484604051610133929190610457565b60405180910390a35050565b6000604051905090565b600080fd5b600080fd5b600073ffffffffffffffffffffffffffffffffffffffff82169050919050565b600061017e82610153565b9050919050565b61018e81610173565b811461019957600080fd5b50565b6000813590506101ab81610185565b92915050565b600080fd5b600080fd5b6000601f19601f8301169050919050565b7f4e487b7100000000000000000000000000000000000000000000000000000000600052604160045260246000fd5b610204826101bb565b810181811067ffffffffffffffff82111715610223576102226101cc565b5b80604052505050565b600061023661013f565b905061024282826101fb565b919050565b600067ffffffffffffffff821115610262576102616101cc565b5b61026b826101bb565b9050602081019050919050565b82818337600083830152505050565b600061029a61029584610247565b61022c565b9050828152602081018484840111156102b6576102b56101b6565b5b6102c1848285610278565b509392505050565b600082601f8301126102de576102dd6101b1565b5b81356102ee848260208601610287565b91505092915050565b6000806040838503121561030e5761030d610149565b5b600061031c8582860161019c565b925050602083013567ffffffffffffffff81111561033d5761033c61014e565b5b610349858286016102c9565b9150509250929050565b600082825260208201905092915050565b7f5061796d656e74206d7573742062652067726561746572207468616e20300000600082015250565b600061039a601e83610353565b91506103a582610364565b602082019050919050565b600060208201905081810360008301526103c98161038d565b9050919050565b6000819050919050565b6103e3816103d0565b82525050565b600081519050919050565b60005b838110156104125780820151818401526020810190506103f7565b60008484015250505050565b6000610429826103e9565b6104338185610353565b93506104438185602086016103f4565b61044c816101bb565b840191505092915050565b600060408201905061046c60008301856103da565b818103602083015261047e818461041e565b9050939250505056fea264697066735822122003772f3209a72374ca153d6b99efacfeaaad976367bfb03f5f355e2facb5364a64736f6c63430008180033",
  "linkReferences": {},
  "deployedLinkReferences": {}
}