{
  "_format": "hh-sol-artifact-1",
  "contractName": "UserProfileManager",
  "sourceName": "contracts/UserProfileManager.sol",
  "abi": [
    {
      "anonymous": false,
      "inputs": [
        {
          "indexed": true,
          "internalType": "string",
          "name": "name",
          "type": "string"
        },
        {
          "indexed": false,
          "internalType": "address",
          "name": "newAddress",
          "type": "address"
        }
      ],
      "name": "AddressAdded",
      "type": "event"
    },
    {
      "anonymous": false,
      "inputs": [
        {
          "indexed": true,
          "internalType": "string",
          "name": "name",
          "type": "string"
        },
        {
          "indexed": false,
          "internalType": "address",
          "name": "from",
          "type": "address"
        },
        {
          "indexed": false,
          "internalType": "uint256",
          "name": "amount",
          "type": "uint256"
        }
      ],
      "name": "FundsSent",
      "type": "event"
    },
    {
      "anonymous": false,
      "inputs": [
        {
          "indexed": true,
          "internalType": "string",
          "name": "name",
          "type": "string"
        },
        {
          "indexed": false,
          "internalType": "address",
          "name": "primaryAddress",
          "type": "address"
        }
      ],
      "name": "ProfileCreated",
      "type": "event"
    },
    {
      "anonymous": false,
      "inputs": [
        {
          "indexed": true,
          "internalType": "string",
          "name": "name",
          "type": "string"
        }
      ],
      "name": "ProfileUpdated",
      "type": "event"
    },
    {
      "inputs": [
        {
          "internalType": "string",
          "name": "_name",
          "type": "string"
        },
        {
          "internalType": "address",
          "name": "_newAddress",
          "type": "address"
        }
      ],
      "name": "addAddress",
      "outputs": [],
      "stateMutability": "nonpayable",
      "type": "function"
    },
    {
      "inputs": [
        {
          "internalType": "string",
          "name": "_name",
          "type": "string"
        },
        {
          "internalType": "address",
          "name": "_primaryAddress",
          "type": "address"
        },
        {
          "internalType": "string",
          "name": "_role",
          "type": "string"
        },
        {
          "internalType": "string",
          "name": "_twitter",
          "type": "string"
        },
        {
          "internalType": "string",
          "name": "_linkedIn",
          "type": "string"
        },
        {
          "internalType": "string",
          "name": "_github",
          "type": "string"
        }
      ],
      "name": "createProfile",
      "outputs": [],
      "stateMutability": "nonpayable",
      "type": "function"
    },
    {
      "inputs": [
        {
          "internalType": "string",
          "name": "_name",
          "type": "string"
        }
      ],
      "name": "getAddresses",
      "outputs": [
        {
          "internalType": "address[]",
          "name": "",
          "type": "address[]"
        }
      ],
      "stateMutability": "view",
      "type": "function"
    },
    {
      "inputs": [
        {
          "internalType": "string",
          "name": "_name",
          "type": "string"
        }
      ],
      "name": "getProfile",
      "outputs": [
        {
          "components": [
            {
              "internalType": "string",
              "name": "name",
              "type": "string"
            },
            {
              "internalType": "string",
              "name": "role",
              "type": "string"
            },
            {
              "internalType": "string",
              "name": "twitter",
              "type": "string"
            },
            {
              "internalType": "string",
              "name": "linkedIn",
              "type": "string"
            },
            {
              "internalType": "string",
              "name": "github",
              "type": "string"
            }
          ],
          "internalType": "struct UserProfileManager.Profile",
          "name": "",
          "type": "tuple"
        }
      ],
      "stateMutability": "view",
      "type": "function"
    },
    {
      "inputs": [
        {
          "internalType": "string",
          "name": "",
          "type": "string"
        }
      ],
      "name": "primaryAddress",
      "outputs": [
        {
          "internalType": "address",
          "name": "",
          "type": "address"
        }
      ],
      "stateMutability": "view",
      "type": "function"
    },
    {
      "inputs": [
        {
          "internalType": "string",
          "name": "",
          "type": "string"
        }
      ],
      "name": "profiles",
      "outputs": [
        {
          "internalType": "string",
          "name": "name",
          "type": "string"
        },
        {
          "internalType": "string",
          "name": "role",
          "type": "string"
        },
        {
          "internalType": "string",
          "name": "twitter",
          "type": "string"
        },
        {
          "internalType": "string",
          "name": "linkedIn",
          "type": "string"
        },
        {
          "internalType": "string",
          "name": "github",
          "type": "string"
        }
      ],
      "stateMutability": "view",
      "type": "function"
    },
    {
      "inputs": [
        {
          "internalType": "string",
          "name": "_name",
          "type": "string"
        }
      ],
      "name": "sendFunds",
      "outputs": [],
      "stateMutability": "payable",
      "type": "function"
    },
    {
      "inputs": [
        {
          "internalType": "string",
          "name": "_name",
          "type": "string"
        },
        {
          "internalType": "string",
          "name": "_role",
          "type": "string"
        },
        {
          "internalType": "string",
          "name": "_twitter",
          "type": "string"
        },
        {
          "internalType": "string",
          "name": "_linkedIn",
          "type": "string"
        },
        {
          "internalType": "string",
          "name": "_github",
          "type": "string"
        }
      ],
      "name": "updateProfile",
      "outputs": [],
      "stateMutability": "nonpayable",
      "type": "function"
    },
    {
      "inputs": [
        {
          "internalType": "string",
          "name": "",
          "type": "string"
        },
        {
          "internalType": "uint256",
          "name": "",
          "type": "uint256"
        }
      ],
      "name": "userAddresses",
      "outputs": [
        {
          "internalType": "address",
          "name": "",
          "type": "address"
        }
      ],
      "stateMutability": "view",
      "type": "function"
    },
    {
      "inputs": [
        {
          "internalType": "string",
          "name": "",
          "type": "string"
        }
      ],
      "name": "userNameRegistered",
      "outputs": [
        {
          "internalType": "bool",
          "name": "",
          "type": "bool"
        }
      ],
      "stateMutability": "view",
      "type": "function"
    }
  ],
  "bytecode": "0x608060405234801561001057600080fd5b506122d7806100206000396000f3fe6080604052600436106100915760003560e01c8063b1d20a1911610059578063b1d20a191461019f578063cba521e2146101dc578063cd58e4ae1461021d578063ceb35b0f1461025a578063ea0d1b461461028357610091565b80630de98693146100965780633844c388146100d357806339b64c3014610110578063443d6f6e1461014d578063b043e03214610176575b600080fd5b3480156100a257600080fd5b506100bd60048036038101906100b89190611510565b61029f565b6040516100ca919061166a565b60405180910390f35b3480156100df57600080fd5b506100fa60048036038101906100f59190611510565b61061c565b60405161010791906116cd565b60405180910390f35b34801561011c57600080fd5b5061013760048036038101906101329190611510565b610665565b60405161014491906117a6565b60405180910390f35b34801561015957600080fd5b50610174600480360381019061016f91906117f4565b61077c565b005b34801561018257600080fd5b5061019d6004803603810190610198919061190d565b610a06565b005b3480156101ab57600080fd5b506101c660048036038101906101c19190611510565b610b70565b6040516101d39190611a2f565b60405180910390f35b3480156101e857600080fd5b5061020360048036038101906101fe9190611510565b610ba6565b604051610214959493929190611a94565b60405180910390f35b34801561022957600080fd5b50610244600480360381019061023f9190611b40565b610e9a565b60405161025191906116cd565b60405180910390f35b34801561026657600080fd5b50610281600480360381019061027c9190611b9c565b610efe565b005b61029d60048036038101906102989190611510565b61118d565b005b6102a7611387565b6000826040516102b79190611c34565b908152602001604051809103902060009054906101000a900460ff16610312576040517f08c379a000000000000000000000000000000000000000000000000000000000815260040161030990611c97565b60405180910390fd5b6003826040516103229190611c34565b90815260200160405180910390206040518060a001604052908160008201805461034b90611ce6565b80601f016020809104026020016040519081016040528092919081815260200182805461037790611ce6565b80156103c45780601f10610399576101008083540402835291602001916103c4565b820191906000526020600020905b8154815290600101906020018083116103a757829003601f168201915b505050505081526020016001820180546103dd90611ce6565b80601f016020809104026020016040519081016040528092919081815260200182805461040990611ce6565b80156104565780601f1061042b57610100808354040283529160200191610456565b820191906000526020600020905b81548152906001019060200180831161043957829003601f168201915b5050505050815260200160028201805461046f90611ce6565b80601f016020809104026020016040519081016040528092919081815260200182805461049b90611ce6565b80156104e85780601f106104bd576101008083540402835291602001916104e8565b820191906000526020600020905b8154815290600101906020018083116104cb57829003601f168201915b5050505050815260200160038201805461050190611ce6565b80601f016020809104026020016040519081016040528092919081815260200182805461052d90611ce6565b801561057a5780601f1061054f5761010080835404028352916020019161057a565b820191906000526020600020905b81548152906001019060200180831161055d57829003601f168201915b5050505050815260200160048201805461059390611ce6565b80601f01602080910402602001604051908101604052809291908181526020018280546105bf90611ce6565b801561060c5780601f106105e15761010080835404028352916020019161060c565b820191906000526020600020905b8154815290600101906020018083116105ef57829003601f168201915b5050505050815250509050919050565b6002818051602081018201805184825260208301602085012081835280955050505050506000915054906101000a900473ffffffffffffffffffffffffffffffffffffffff1681565b60606000826040516106779190611c34565b908152602001604051809103902060009054906101000a900460ff166106d2576040517f08c379a00000000000000000000000000000000000000000000000000000000081526004016106c990611c97565b60405180910390fd5b6001826040516106e29190611c34565b908152602001604051809103902080548060200260200160405190810160405280929190818152602001828054801561077057602002820191906000526020600020905b8160009054906101000a900473ffffffffffffffffffffffffffffffffffffffff1673ffffffffffffffffffffffffffffffffffffffff1681526020019060010190808311610726575b50505050509050919050565b60008660405161078c9190611c34565b908152602001604051809103902060009054906101000a900460ff16156107e8576040517f08c379a00000000000000000000000000000000000000000000000000000000081526004016107df90611d63565b60405180910390fd5b60016000876040516107fa9190611c34565b908152602001604051809103902060006101000a81548160ff021916908315150217905550846002876040516108309190611c34565b908152602001604051809103902060006101000a81548173ffffffffffffffffffffffffffffffffffffffff021916908373ffffffffffffffffffffffffffffffffffffffff1602179055506040518060a00160405280878152602001858152602001848152602001838152602001828152506003876040516108b39190611c34565b908152602001604051809103902060008201518160000190816108d69190611f2f565b5060208201518160010190816108ec9190611f2f565b5060408201518160020190816109029190611f2f565b5060608201518160030190816109189190611f2f565b50608082015181600401908161092e9190611f2f565b509050506001866040516109429190611c34565b9081526020016040518091039020859080600181540180825580915050600190039060005260206000200160009091909190916101000a81548173ffffffffffffffffffffffffffffffffffffffff021916908373ffffffffffffffffffffffffffffffffffffffff160217905550856040516109bf9190611c34565b60405180910390207f48cd04660754343a75aabc83899998826b6c3fc1c623d3cfb42bcd3e465cfa3c866040516109f691906116cd565b60405180910390a2505050505050565b600085604051610a169190611c34565b908152602001604051809103902060009054906101000a900460ff16610a71576040517f08c379a0000000000000000000000000000000000000000000000000000000008152600401610a6890611c97565b60405180910390fd5b6040518060a0016040528086815260200185815260200184815260200183815260200182815250600386604051610aa89190611c34565b90815260200160405180910390206000820151816000019081610acb9190611f2f565b506020820151816001019081610ae19190611f2f565b506040820151816002019081610af79190611f2f565b506060820151816003019081610b0d9190611f2f565b506080820151816004019081610b239190611f2f565b5090505084604051610b359190611c34565b60405180910390207f62ef9773503de4dcf411c8f6c4968707609c4fba31ea026b68cf87d942d2ff0460405160405180910390a25050505050565b6000818051602081018201805184825260208301602085012081835280955050505050506000915054906101000a900460ff1681565b600381805160208101820180518482526020830160208501208183528095505050505050600091509050806000018054610bdf90611ce6565b80601f0160208091040260200160405190810160405280929190818152602001828054610c0b90611ce6565b8015610c585780601f10610c2d57610100808354040283529160200191610c58565b820191906000526020600020905b815481529060010190602001808311610c3b57829003601f168201915b505050505090806001018054610c6d90611ce6565b80601f0160208091040260200160405190810160405280929190818152602001828054610c9990611ce6565b8015610ce65780601f10610cbb57610100808354040283529160200191610ce6565b820191906000526020600020905b815481529060010190602001808311610cc957829003601f168201915b505050505090806002018054610cfb90611ce6565b80601f0160208091040260200160405190810160405280929190818152602001828054610d2790611ce6565b8015610d745780601f10610d4957610100808354040283529160200191610d74565b820191906000526020600020905b815481529060010190602001808311610d5757829003601f168201915b505050505090806003018054610d8990611ce6565b80601f0160208091040260200160405190810160405280929190818152602001828054610db590611ce6565b8015610e025780601f10610dd757610100808354040283529160200191610e02565b820191906000526020600020905b815481529060010190602001808311610de557829003601f168201915b505050505090806004018054610e1790611ce6565b80601f0160208091040260200160405190810160405280929190818152602001828054610e4390611ce6565b8015610e905780601f10610e6557610100808354040283529160200191610e90565b820191906000526020600020905b815481529060010190602001808311610e7357829003601f168201915b5050505050905085565b6001828051602081018201805184825260208301602085012081835280955050505050508181548110610ecc57600080fd5b906000526020600020016000915091509054906101000a900473ffffffffffffffffffffffffffffffffffffffff1681565b600082604051610f0e9190611c34565b908152602001604051809103902060009054906101000a900460ff16610f69576040517f08c379a0000000000000000000000000000000000000000000000000000000008152600401610f6090611c97565b60405180910390fd5b8073ffffffffffffffffffffffffffffffffffffffff16600283604051610f909190611c34565b908152602001604051809103902060009054906101000a900473ffffffffffffffffffffffffffffffffffffffff1673ffffffffffffffffffffffffffffffffffffffff1603611015576040517f08c379a000000000000000000000000000000000000000000000000000000000815260040161100c90612073565b60405180910390fd5b6001826040516110259190611c34565b9081526020016040518091039020819080600181540180825580915050600190039060005260206000200160009091909190916101000a81548173ffffffffffffffffffffffffffffffffffffffff021916908373ffffffffffffffffffffffffffffffffffffffff1602179055506003826040516110a49190611c34565b90815260200160405180910390206003836040516110c29190611c34565b9081526020016040518091039020600082018160000190816110e491906120a9565b50600182018160010190816110f991906120a9565b506002820181600201908161110e91906120a9565b506003820181600301908161112391906120a9565b506004820181600401908161113891906120a9565b509050508160405161114a9190611c34565b60405180910390207fd2754bb25f80d82f28983daef636e09dd633511ed87d9a247d9982c495912dd38260405161118191906116cd565b60405180910390a25050565b600060028260405161119f9190611c34565b908152602001604051809103902060009054906101000a900473ffffffffffffffffffffffffffffffffffffffff1690506000826040516111e09190611c34565b908152602001604051809103902060009054906101000a900460ff1661123b576040517f08c379a000000000000000000000000000000000000000000000000000000000815260040161123290611c97565b60405180910390fd5b600073ffffffffffffffffffffffffffffffffffffffff168173ffffffffffffffffffffffffffffffffffffffff16036112aa576040517f08c379a00000000000000000000000000000000000000000000000000000000081526004016112a1906121dd565b60405180910390fd5b600034116112ed576040517f08c379a00000000000000000000000000000000000000000000000000000000081526004016112e490612249565b60405180910390fd5b8073ffffffffffffffffffffffffffffffffffffffff166108fc349081150290604051600060405180830381858888f19350505050158015611333573d6000803e3d6000fd5b50816040516113429190611c34565b60405180910390207f22f34457537e11fadd17cb52d1dbfbbc88b5d212fb353a45b3af2f33d29b7395333460405161137b929190612278565b60405180910390a25050565b6040518060a0016040528060608152602001606081526020016060815260200160608152602001606081525090565b6000604051905090565b600080fd5b600080fd5b600080fd5b600080fd5b6000601f19601f8301169050919050565b7f4e487b7100000000000000000000000000000000000000000000000000000000600052604160045260246000fd5b61141d826113d4565b810181811067ffffffffffffffff8211171561143c5761143b6113e5565b5b80604052505050565b600061144f6113b6565b905061145b8282611414565b919050565b600067ffffffffffffffff82111561147b5761147a6113e5565b5b611484826113d4565b9050602081019050919050565b82818337600083830152505050565b60006114b36114ae84611460565b611445565b9050828152602081018484840111156114cf576114ce6113cf565b5b6114da848285611491565b509392505050565b600082601f8301126114f7576114f66113ca565b5b81356115078482602086016114a0565b91505092915050565b600060208284031215611526576115256113c0565b5b600082013567ffffffffffffffff811115611544576115436113c5565b5b611550848285016114e2565b91505092915050565b600081519050919050565b600082825260208201905092915050565b60005b83811015611593578082015181840152602081019050611578565b60008484015250505050565b60006115aa82611559565b6115b48185611564565b93506115c4818560208601611575565b6115cd816113d4565b840191505092915050565b600060a08301600083015184820360008601526115f5828261159f565b9150506020830151848203602086015261160f828261159f565b91505060408301518482036040860152611629828261159f565b91505060608301518482036060860152611643828261159f565b9150506080830151848203608086015261165d828261159f565b9150508091505092915050565b6000602082019050818103600083015261168481846115d8565b905092915050565b600073ffffffffffffffffffffffffffffffffffffffff82169050919050565b60006116b78261168c565b9050919050565b6116c7816116ac565b82525050565b60006020820190506116e260008301846116be565b92915050565b600081519050919050565b600082825260208201905092915050565b6000819050602082019050919050565b61171d816116ac565b82525050565b600061172f8383611714565b60208301905092915050565b6000602082019050919050565b6000611753826116e8565b61175d81856116f3565b935061176883611704565b8060005b838110156117995781516117808882611723565b975061178b8361173b565b92505060018101905061176c565b5085935050505092915050565b600060208201905081810360008301526117c08184611748565b905092915050565b6117d1816116ac565b81146117dc57600080fd5b50565b6000813590506117ee816117c8565b92915050565b60008060008060008060c08789031215611811576118106113c0565b5b600087013567ffffffffffffffff81111561182f5761182e6113c5565b5b61183b89828a016114e2565b965050602061184c89828a016117df565b955050604087013567ffffffffffffffff81111561186d5761186c6113c5565b5b61187989828a016114e2565b945050606087013567ffffffffffffffff81111561189a576118996113c5565b5b6118a689828a016114e2565b935050608087013567ffffffffffffffff8111156118c7576118c66113c5565b5b6118d389828a016114e2565b92505060a087013567ffffffffffffffff8111156118f4576118f36113c5565b5b61190089828a016114e2565b9150509295509295509295565b600080600080600060a08688031215611929576119286113c0565b5b600086013567ffffffffffffffff811115611947576119466113c5565b5b611953888289016114e2565b955050602086013567ffffffffffffffff811115611974576119736113c5565b5b611980888289016114e2565b945050604086013567ffffffffffffffff8111156119a1576119a06113c5565b5b6119ad888289016114e2565b935050606086013567ffffffffffffffff8111156119ce576119cd6113c5565b5b6119da888289016114e2565b925050608086013567ffffffffffffffff8111156119fb576119fa6113c5565b5b611a07888289016114e2565b9150509295509295909350565b60008115159050919050565b611a2981611a14565b82525050565b6000602082019050611a446000830184611a20565b92915050565b600082825260208201905092915050565b6000611a6682611559565b611a708185611a4a565b9350611a80818560208601611575565b611a89816113d4565b840191505092915050565b600060a0820190508181036000830152611aae8188611a5b565b90508181036020830152611ac28187611a5b565b90508181036040830152611ad68186611a5b565b90508181036060830152611aea8185611a5b565b90508181036080830152611afe8184611a5b565b90509695505050505050565b6000819050919050565b611b1d81611b0a565b8114611b2857600080fd5b50565b600081359050611b3a81611b14565b92915050565b60008060408385031215611b5757611b566113c0565b5b600083013567ffffffffffffffff811115611b7557611b746113c5565b5b611b81858286016114e2565b9250506020611b9285828601611b2b565b9150509250929050565b60008060408385031215611bb357611bb26113c0565b5b600083013567ffffffffffffffff811115611bd157611bd06113c5565b5b611bdd858286016114e2565b9250506020611bee858286016117df565b9150509250929050565b600081905092915050565b6000611c0e82611559565b611c188185611bf8565b9350611c28818560208601611575565b80840191505092915050565b6000611c408284611c03565b915081905092915050565b7f50726f66696c6520646f6573206e6f7420657869737400000000000000000000600082015250565b6000611c81601683611a4a565b9150611c8c82611c4b565b602082019050919050565b60006020820190508181036000830152611cb081611c74565b9050919050565b7f4e487b7100000000000000000000000000000000000000000000000000000000600052602260045260246000fd5b60006002820490506001821680611cfe57607f821691505b602082108103611d1157611d10611cb7565b5b50919050565b7f50726f66696c6520616c72656164792065786973747300000000000000000000600082015250565b6000611d4d601683611a4a565b9150611d5882611d17565b602082019050919050565b60006020820190508181036000830152611d7c81611d40565b9050919050565b60008190508160005260206000209050919050565b60006020601f8301049050919050565b600082821b905092915050565b600060088302611de57fffffffffffffffffffffffffffffffffffffffffffffffffffffffffffffffff82611da8565b611def8683611da8565b95508019841693508086168417925050509392505050565b6000819050919050565b6000611e2c611e27611e2284611b0a565b611e07565b611b0a565b9050919050565b6000819050919050565b611e4683611e11565b611e5a611e5282611e33565b848454611db5565b825550505050565b600090565b611e6f611e62565b611e7a818484611e3d565b505050565b5b81811015611e9e57611e93600082611e67565b600181019050611e80565b5050565b601f821115611ee357611eb481611d83565b611ebd84611d98565b81016020851015611ecc578190505b611ee0611ed885611d98565b830182611e7f565b50505b505050565b600082821c905092915050565b6000611f0660001984600802611ee8565b1980831691505092915050565b6000611f1f8383611ef5565b9150826002028217905092915050565b611f3882611559565b67ffffffffffffffff811115611f5157611f506113e5565b5b611f5b8254611ce6565b611f66828285611ea2565b600060209050601f831160018114611f995760008415611f87578287015190505b611f918582611f13565b865550611ff9565b601f198416611fa786611d83565b60005b82811015611fcf57848901518255600182019150602085019450602081019050611faa565b86831015611fec5784890151611fe8601f891682611ef5565b8355505b6001600288020188555050505b505050505050565b7f4164647265737320616c7265616479206173736f63696174656420776974682060008201527f7468652070726f66696c65000000000000000000000000000000000000000000602082015250565b600061205d602b83611a4a565b915061206882612001565b604082019050919050565b6000602082019050818103600083015261208c81612050565b9050919050565b6000815490506120a281611ce6565b9050919050565b8181036120b757505061218f565b6120c082612093565b67ffffffffffffffff8111156120d9576120d86113e5565b5b6120e38254611ce6565b6120ee828285611ea2565b6000601f83116001811461211d576000841561210b578287015490505b6121158582611f13565b865550612188565b601f19841661212b87611d83565b965061213686611d83565b60005b8281101561215e57848901548255600182019150600185019450602081019050612139565b8683101561217b5784890154612177601f891682611ef5565b8355505b6001600288020188555050505b5050505050505b565b7f5072696d6172792061646472657373206973206e6f7420736574000000000000600082015250565b60006121c7601a83611a4a565b91506121d282612191565b602082019050919050565b600060208201905081810360008301526121f6816121ba565b9050919050565b7f416d6f756e74206d7573742062652067726561746572207468616e2030000000600082015250565b6000612233601d83611a4a565b915061223e826121fd565b602082019050919050565b6000602082019050818103600083015261226281612226565b9050919050565b61227281611b0a565b82525050565b600060408201905061228d60008301856116be565b61229a6020830184612269565b939250505056fea264697066735822122094036daea827ed0c42a241f7ce4b3db00e939dafbbef4efeed93c7a51242fac164736f6c63430008180033",
  "linkReferences": {},
  "deployedLinkReferences": {}
}